S013000073696D706C655F67616D652E737265638E
S11300000C942A000C9447000C9447000C9447006D
S11300100C9447000C9447000C9447000C94470040
S11300200C9447000C9447000C943D060C9466060F
S11300300C9447000C9447000C9447000C94470020
S11300400C9447000C9447000C9447000C94470010
S11300500C94470011241FBECFE5D8E0DEBFCDBF0E
S113006010E0A0E6B0E0EAE4FDE002C005900D92E5
S1130070A23EB107D9F710E0A2EEB0E001C01D9294
S1130080A83EB107E1F70E9433050C94A3060C9433
S11300900000843409F471C0853448F4823499F141
S11300A0833408F04DC0813409F083C00FC0823618
S11300B051F1833620F4813609F07BC007C08336C2
S11300C009F43EC0843609F074C057C0413069F465
S11300D02AB381E090E0AC0102C0440F551F6A9539
S11300E0E2F7BA01622B6ABB08952AB381E090E07B
S11300F0AC0102C0440F551F6A95E2F7BA0160953E
S113010062236ABB0895413069F427B381E090E02B
S1130110AC0102C0440F551F6A95E2F7BA01622B85
S113012067BB089527B381E090E0AC0102C0440F9F
S1130130551F6A95E2F7BA016095622367BB08957B
S1130140413069F424B381E090E0AC0102C0440F73
S1130150551F6A95E2F7BA01622B64BB089524B374
S113016081E090E0AC0102C0440F551F6A95E2F7AC
S1130170BA016095622364BB0895413069F421B3E8
S113018081E090E0AC0102C0440F551F6A95E2F78C
S1130190BA01622B61BB089521B381E090E0AC0108
S11301A002C0440F551F6A95E2F7BA0160956223B5
S11301B061BB0895843409F471C0853448F48234F1
S11301C099F1833408F04DC0813409F083C00FC025
S11301D0823651F1833620F4813609F07BC007C0A2
S11301E0833609F43EC0843609F074C057C04130E8
S11301F069F42BB381E090E0AC0102C0440F551FB9
S11302006A95E2F7BA01622B6BBB08952BB381E0C8
S113021090E0AC0102C0440F551F6A95E2F7BA01A1
S1130220609562236BBB0895413069F428B381E083
S113023090E0AC0102C0440F551F6A95E2F7BA0181
S1130240622B68BB089528B381E090E0AC0102C042
S1130250440F551F6A95E2F7BA016095622368BBA3
S11302600895413069F425B381E090E0AC0102C007
S1130270440F551F6A95E2F7BA01622B65BB0895D6
S113028025B381E090E0AC0102C0440F551F6A958C
S1130290E2F7BA016095622365BB0895413069F4C1
S11302A022B381E090E0AC0102C0440F551F6A956F
S11302B0E2F7BA01622B62BB089522B381E090E0B9
S11302C0AC0102C0440F551F6A95E2F7BA0160956C
S11302D0622362BB0895843409F43DC0853440F43C
S11302E08234F9F0833450F5813409F040C00CC0F5
S11302F08236B9F0833618F48136C9F505C08336E1
S1130300E9F08436A1F527C02BB381E090E0AC017D
S113031002C0440F551F6A95E2F7BA0162276BBB0E
S1130320089528B381E090E0AC0102C0440F551F4A
S11303306A95E2F7BA01622768BB089525B381E0A4
S113034090E0AC0102C0440F551F6A95E2F7BA0170
S1130350622765BB089522B381E090E0AC0102C03E
S1130360440F551F6A95E2F7BA01622762BB0895EC
S11303708434B1F1853438F48234E1F0833428F5DF
S11303808134C1F50CC08236A9F0833618F4813665
S113039089F505C08336C9F0843661F521C029B3D7
S11303A030E0C90102C0959587956A95E2F7982FC8
S11303B0917020C026B330E0C90102C0959587959D
S11303C06A95E2F7982F917015C023B330E0C90104
S11303D002C0959587956A95E2F7982F91700AC0A7
S11303E020B330E0C90102C0959587956A95E2F77C
S11303F0982F9170892F08958434D9F0853438F476
S1130400823499F0833498F48134A1F40CC0823698
S113041061F0833618F4813669F405C0833639F007
S1130420843641F406C06ABB089567BB089564BB73
S1130430089561BB08958434D9F0853438F4823446
S113044099F0833498F48134A1F40CC0823661F0BD
S1130450833618F4813669F405C0833639F084365E
S113046041F406C06BBB089568BB089565BB08954D
S113047062BB0895843409F1853438F48234A9F0D8
S11304808334B8F48134E1F40CC0823671F08336DD
S113049018F48136A9F405C0833659F0843681F402
S11304A00CC08BB380958BBB089588B3809588BBB3
S11304B0089585B3809585BB089582B3809582BBEA
S11304C008958434D9F0853438F4823499F083342F
S11304D098F48134A1F40CC0823661F0833618F4A8
S11304E0813669F405C0833639F0843641F406C098
S11304F099B305C096B303C093B301C090B3892FD9
S11305000895843409F471C0853448F4823499F12F
S1130510833408F04DC0813409F083C00FC08236A3
S113052051F1833620F4813609F07BC007C083364D
S113053009F43EC0843609F074C057C0413069F4F0
S11305402BB381E090E0AC0102C0440F551F6A95C3
S1130550E2F7BA01622B6BBB08952BB381E090E004
S1130560AC0102C0440F551F6A95E2F7BA016095C9
S113057062236BBB0895413069F428B381E090E0B5
S1130580AC0102C0440F551F6A95E2F7BA01622B11
S113059068BB089528B381E090E0AC0102C0440F29
S11305A0551F6A95E2F7BA016095622368BB089506
S11305B0413069F425B381E090E0AC0102C0440FFE
S11305C0551F6A95E2F7BA01622B65BB089525B3FE
S11305D081E090E0AC0102C0440F551F6A95E2F738
S11305E0BA016095622365BB0895413069F422B372
S11305F081E090E0AC0102C0440F551F6A95E2F718
S1130600BA01622B62BB089522B381E090E0AC0191
S113061002C0440F551F6A95E2F7BA016095622340
S113062062BB08958FB780688FBF08958FB78F77A7
S11306308FBF089584E46FE00E94FC0184E464E0C9
S113064041E00E94810284E465E041E00E9481026D
S113065084E466E041E00E94810284E467E041E0D2
S11306600E94810284E460E041E00E94DA0084E4B4
S113067061E041E00E94DA0084E462E041E00E942B
S1130680DA0084E463E041E00E94DA0008950F9305
S11306901F93CF93DF93CDB7DEB760970FB6F8946F
S11306A0DEBF0FBECDBFDE011196E0E6F0E080E1D3
S11306B001900D928150E1F700E084E4602F40E066
S11306C00E94DA0010E0612F6C5F84E40E94B8019C
S11306D0882389F4E02FF0E0EE0FFF1FEE0FFF1FD9
S11306E0E10FF11DEC0FFD1F118184E4602F41E047
S11306F00E94DA0004C01F5F143029F70CC0812F58
S113070060960FB6F894DEBF0FBECDBFDF91CF91D8
S11307101F910F91089584E4602F41E00E94DA0054
S11307200F5F043051F61FEFEACF83E466E041E047
S11307300E94DA008FE99FE00197F1F700C0000002
S113074083E466E040E00E94DA008FE99FE00197CD
S1130750F1F700C000000895CF93C82F482F4295A9
S11307604F70417083E460E00E94DA004C2F4295A0
S113077046954770417083E461E00E94DA004C2F93
S11307804295469546954370417083E462E00E9429
S1130790DA004C2F441F4427441F83E463E00E9483
S11307A0DA0083E464E040E00E94DA000E949503EA
S11307B04C2F417083E460E00E94DA004C2F469590
S11307C0417083E461E00E94DA004C2F469546951F
S11307D0417083E462E00E94DA00C695C695C6952E
S11307E04C2F417083E463E00E94DA0083E464E008
S11307F040E00E94DA000E949503CF9108958FE7AC
S113080099EAA3E081509040A040E1F700C00000C5
S113081083E460E041E00E94490083E461E041E058
S11308200E94490083E462E041E00E94490083E4BD
S113083063E041E00E94490083E464E041E00E94F7
S1130840490083E465E041E00E94490083E466E0F6
S113085041E00E94490083E465E040E00E94DA0040
S113086082E00E94AC03AFE1BEE41197F1F700C04F
S1130870000088E20E94AC038FEC97E00197F1F747
S113088000C000008CE00E94AC03AFECB7E011970D
S1130890F1F700C0000081E00E94AC038FE19EE408
S11308A00197F1F700C0000086E00E94AC03AFECB2
S11308B0B7E01197F1F700C000000895CF93C82F57
S11308C0482F42954F70417083E460E00E94DA0043
S11308D04C2F429546954770417083E461E00E9435
S11308E0DA004C2F4295469546954370417083E457
S11308F062E00E94DA004C2F441F4427441F83E423
S113090063E00E94DA0083E464E041E00E94DA00DC
S11309100E9495034C2F417083E460E00E94DA004A
S11309204C2F4695417083E461E00E94DA004C2F1D
S113093046954695417083E462E00E94DA00C695CC
S1130940C695C6954C2F417083E463E00E94DA009B
S113095083E464E041E00E94DA000E949503CF91B1
S1130960089581E00E94AC030895833080F46131DE
S113097080F4662381F0882381F0813019F4962F66
S113098091580CC0823051F4962F915407C090E8CE
S113099005C090E803C090E801C090E8892F0E9448
S11309A0AC030895CF93DF93EC018881882331F061
S11309B021960E945E0489918823D9F7DF91CF9113
S11309C008951F93CF93DF93CDB7DEB728970FB663
S11309D0F894DEBF0FBECDBF8A30910518F00097A2
S11309E029F42DC0805D0E945E0429C010E02AE035
S11309F030E0E12FFF27E7FDF09541E050E04C0F98
S1130A005D1FE40FF51FB9010E948F068083862FB6
S1130A10972F1F5F009769F711168CF41150E12F7F
S1130A20FF27E7FDF09581E090E08C0F9D1FE80F14
S1130A30F91F8081805D0E945E04112379F7289656
S1130A400FB6F894DEBF0FBECDBFDF91CF911F91DB
S1130A5008958091E2009091E30001969093E30061
S1130A608093E2000895CF93DF9300D000D000D0AC
S1130A70CDB7DEB70E94FF030E941A030E942C0622
S1130A8089E295E00E9427060F2EF6EACF2EF0E0C9
S1130A90DF2EF02D00EA10E02AE930E03A832983C2
S1130AA0AA24BB24EA2C0E94B104C6010E94D204E9
S1130AB01092E3001092E2000E944703F82E3FEFE9
S1130AC0831741F48091E2009091E30043E0883E73
S1130AD0940790F38FE79AE1A6E081509040A040FC
S1130AE0E1F700C00000BC82AB82A981BA816D919C
S1130AF0BA83A98381E00E94B5041E830D83F801A3
S1130B0080818A30F8F0FF0C8F2D880F880FF80E43
S1130B100E9447038F3F41F42091E2003091E300AB
S1130B20F3E0283E3F07A0F32FE73AE146E02150E7
S1130B3030404040E1F700C000009F2D9051F92E55
S1130B40F80E02C030EDF30E8F2D90E00E94E10408
S1130B508091E2009091E30043E0883E940750F4D2
S1130B600894A11CB11C0F5F1F4FAD81BE818C91F5
S1130B708F15B9F18091E2009091E300B3E0883ED3
S1130B809B07A0F00E94B10482E064E00E94B504D7
S1130B9080E790E00E94D2042FEF39E648E121502B
S1130BA030404040E1F700C0000036C0EB81FC81DA
S1130BB0E056FF4F80818F1579F10E94B10482E0E5
S1130BC063E00E94B5048AE790E00E94D2048FEFAC
S1130BD099E6A8E181509040A040E1F700C00000F0
S1130BE01BC082E064E00E94B50487E890E00E94A4
S1130BF0D2042FEF39E648E1215030404040E1F77C
S1130C0000C00000EA2C4AE050E0C40ED51E56E0B5
S1130C10A516B10409F046CF8091E2009091E3005B
S1130C20A3E0883E9A0768F4B6E0EB1651F40E94FC
S1130C30B10482E064E00E94B50481E990E00E947E
S1130C40D204FFCF9093E7008093E6000895909339
S1130C50E5008093E400089583B7886083BF8FE440
S1130C608CBF83B7816083BF83B7846083BF0E94D6
S1130C70120389B7826089BF08951F920F920FB63D
S1130C800F9211242F933F934F935F936F937F930E
S1130C908F939F93AF93BF93EF93FF93E091E400FF
S1130CA0F091E500309709F00995FF91EF91BF911C
S1130CB0AF919F918F917F916F915F914F913F91F0
S1130CC02F910F900FBE0F901F9018951F920F92A7
S1130CD00FB60F9211242F933F934F935F936F930B
S1130CE07F938F939F93AF93BF93EF93FF93E09181
S1130CF0E600F091E700309709F00995FF91EF9134
S1130D00BF91AF919F918F917F916F915F914F911F
S1130D103F912F910F900FBE0F901F901895AA1B13
S1130D20BB1B51E107C0AA1FBB1FA617B70710F0D2
S1130D30A61BB70B881F991F5A95A9F78095909504
S10D0D40BC01CD010895F894FFCF23
S1130D4A3738392F3435362A3132332D41303D2B59
S1130D5A54696D65204F7665720057726F6E67200D
S1130D6A416E737765720057656C6C20446F6E65CB
S1130D7A00436F6E6772617473000305030505050A
S1130D8A050B07050348332B3F3D380000000000DC
S1130D9A362B353D3F000000000036783F3D3432A3
S1130DAA00000000392D343D3F0000000000392FB7
S1130DBA333D3F00000000003978383D3F00000011
S1050DCA000023
S9030000FC
